{"contracts/Greeter.sol":{"Greeter":{"abi":[{"inputs":[{"internalType":"uint256","name":"_number","type":"uint256"}],"stateMutability":"nonpayable","type":"constructor"},{"inputs":[],"name":"getNumber","outputs":[{"internalType":"uint256","name":"","type":"uint256"}],"stateMutability":"view","type":"function"},{"inputs":[],"name":"greet","outputs":[{"internalType":"string","name":"","type":"string"}],"stateMutability":"pure","type":"function"},{"inputs":[],"name":"greeting","outputs":[{"internalType":"string","name":"","type":"string"}],"stateMutability":"view","type":"function"},{"inputs":[],"name":"number","outputs":[{"internalType":"uint256","name":"","type":"uint256"}],"stateMutability":"view","type":"function"},{"inputs":[{"internalType":"uint256","name":"_number","type":"uint256"}],"name":"setNumber","outputs":[],"stateMutability":"nonpayable","type":"function"}],"evm":{"bytecode":{"linkReferences":{},"object":"608060405234801561001057600080fd5b5060405161048a38038061048a833981810160405281019061003291906100b1565b61004c67af15728cd59ee59a60c01b61007360201b60201c565b61006667c38c8579034b6fe960c01b61007360201b60201c565b80600081905550506100de565b50565b600080fd5b6000819050919050565b61008e8161007b565b811461009957600080fd5b50565b6000815190506100ab81610085565b92915050565b6000602082840312156100c7576100c6610076565b5b60006100d58482850161009c565b91505092915050565b61039d806100ed6000396000f3fe608060405234801561001057600080fd5b50600436106100575760003560e01c80633fb5c1cb1461005c5780638381f58a14610078578063cfae321714610096578063ef690cc0146100b4578063f2c9ecd8146100d2575b600080fd5b6100766004803603810190610071919061025e565b6100f0565b005b610080610122565b60405161008d919061029a565b60405180910390f35b61009e610128565b6040516100ab9190610345565b60405180910390f35b6100bc6101a1565b6040516100c99190610345565b60405180910390f35b6100da6101da565b6040516100e7919061029a565b60405180910390f35b610104674731c5e42165727660c01b610220565b610118675937d4440a60d56c60c01b610220565b8060008190555050565b60005481565b606061013e6704730f007d94e9b660c01b610220565b61015267d7183cdfa1cbb24660c01b610220565b61016667ffa08679aae4e39060c01b610220565b6040518060400160405280601481526020017f48656c6c6f2066726f6d20636f6e747261637421000000000000000000000000815250905090565b6040518060400160405280601481526020017f48656c6c6f2066726f6d20636f6e74726163742100000000000000000000000081525081565b60006101f0676316d9829d7ae3c160c01b610220565b610204678b4a35a6289670ab60c01b610220565b610218679f6abe498d0c792160c01b610220565b600054905090565b50565b600080fd5b6000819050919050565b61023b81610228565b811461024657600080fd5b50565b60008135905061025881610232565b92915050565b60006020828403121561027457610273610223565b5b600061028284828501610249565b91505092915050565b61029481610228565b82525050565b60006020820190506102af600083018461028b565b92915050565b600081519050919050565b600082825260208201905092915050565b60005b838110156102ef5780820151818401526020810190506102d4565b60008484015250505050565b6000601f19601f8301169050919050565b6000610317826102b5565b61032181856102c0565b93506103318185602086016102d1565b61033a816102fb565b840191505092915050565b6000602082019050818103600083015261035f818461030c565b90509291505056fea2646970667358221220219cb76f0f2e11c0196938002307c3a16f776ae19be4c85655ffcb6bdc44270164736f6c63430008180033","opcodes":"PUSH1 0x80 PUSH1 0x40 MSTORE CALLVALUE DUP1 ISZERO PUSH2 0x10 JUMPI PUSH1 0x0 DUP1 REVERT JUMPDEST POP PUSH1 0x40 MLOAD PUSH2 0x48A CODESIZE SUB DUP1 PUSH2 0x48A DUP4 CODECOPY DUP2 DUP2 ADD PUSH1 0x40 MSTORE DUP2 ADD SWAP1 PUSH2 0x32 SWAP2 SWAP1 PUSH2 0xB1 JUMP JUMPDEST PUSH2 0x4C PUSH8 0xAF15728CD59EE59A PUSH1 0xC0 SHL PUSH2 0x73 PUSH1 0x20 SHL PUSH1 0x20 SHR JUMP JUMPDEST PUSH2 0x66 PUSH8 0xC38C8579034B6FE9 PUSH1 0xC0 SHL PUSH2 0x73 PUSH1 0x20 SHL PUSH1 0x20 SHR JUMP JUMPDEST DUP1 PUSH1 0x0 DUP2 SWAP1 SSTORE POP POP PUSH2 0xDE JUMP JUMPDEST POP JUMP JUMPDEST PUSH1 0x0 DUP1 REVERT JUMPDEST PUSH1 0x0 DUP2 SWAP1 POP SWAP2 SWAP1 POP JUMP JUMPDEST PUSH2 0x8E DUP2 PUSH2 0x7B JUMP JUMPDEST DUP2 EQ PUSH2 0x99 JUMPI PUSH1 0x0 DUP1 REVERT JUMPDEST POP JUMP JUMPDEST PUSH1 0x0 DUP2 MLOAD SWAP1 POP PUSH2 0xAB DUP2 PUSH2 0x85 JUMP JUMPDEST SWAP3 SWAP2 POP POP JUMP JUMPDEST PUSH1 0x0 PUSH1 0x20 DUP3 DUP5 SUB SLT ISZERO PUSH2 0xC7 JUMPI PUSH2 0xC6 PUSH2 0x76 JUMP JUMPDEST JUMPDEST PUSH1 0x0 PUSH2 0xD5 DUP5 DUP3 DUP6 ADD PUSH2 0x9C JUMP JUMPDEST SWAP2 POP POP SWAP3 SWAP2 POP POP JUMP JUMPDEST PUSH2 0x39D DUP1 PUSH2 0xED PUSH1 0x0 CODECOPY PUSH1 0x0 RETURN INVALID PUSH1 0x80 PUSH1 0x40 MSTORE CALLVALUE DUP1 ISZERO PUSH2 0x10 JUMPI PUSH1 0x0 DUP1 REVERT JUMPDEST POP PUSH1 0x4 CALLDATASIZE LT PUSH2 0x57 JUMPI PUSH1 0x0 CALLDATALOAD PUSH1 0xE0 SHR DUP1 PUSH4 0x3FB5C1CB EQ PUSH2 0x5C JUMPI DUP1 PUSH4 0x8381F58A EQ PUSH2 0x78 JUMPI DUP1 PUSH4 0xCFAE3217 EQ PUSH2 0x96 JUMPI DUP1 PUSH4 0xEF690CC0 EQ PUSH2 0xB4 JUMPI DUP1 PUSH4 0xF2C9ECD8 EQ PUSH2 0xD2 JUMPI JUMPDEST PUSH1 0x0 DUP1 REVERT JUMPDEST PUSH2 0x76 PUSH1 0x4 DUP1 CALLDATASIZE SUB DUP2 ADD SWAP1 PUSH2 0x71 SWAP2 SWAP1 PUSH2 0x25E JUMP JUMPDEST PUSH2 0xF0 JUMP JUMPDEST STOP JUMPDEST PUSH2 0x80 PUSH2 0x122 JUMP JUMPDEST PUSH1 0x40 MLOAD PUSH2 0x8D SWAP2 SWAP1 PUSH2 0x29A JUMP JUMPDEST PUSH1 0x40 MLOAD DUP1 SWAP2 SUB SWAP1 RETURN JUMPDEST PUSH2 0x9E PUSH2 0x128 JUMP JUMPDEST PUSH1 0x40 MLOAD PUSH2 0xAB SWAP2 SWAP1 PUSH2 0x345 JUMP JUMPDEST PUSH1 0x40 MLOAD DUP1 SWAP2 SUB SWAP1 RETURN JUMPDEST PUSH2 0xBC PUSH2 0x1A1 JUMP JUMPDEST PUSH1 0x40 MLOAD PUSH2 0xC9 SWAP2 SWAP1 PUSH2 0x345 JUMP JUMPDEST PUSH1 0x40 MLOAD DUP1 SWAP2 SUB SWAP1 RETURN JUMPDEST PUSH2 0xDA PUSH2 0x1DA JUMP JUMPDEST PUSH1 0x40 MLOAD PUSH2 0xE7 SWAP2 SWAP1 PUSH2 0x29A JUMP JUMPDEST PUSH1 0x40 MLOAD DUP1 SWAP2 SUB SWAP1 RETURN JUMPDEST PUSH2 0x104 PUSH8 0x4731C5E421657276 PUSH1 0xC0 SHL PUSH2 0x220 JUMP JUMPDEST PUSH2 0x118 PUSH8 0x5937D4440A60D56C PUSH1 0xC0 SHL PUSH2 0x220 JUMP JUMPDEST DUP1 PUSH1 0x0 DUP2 SWAP1 SSTORE POP POP JUMP JUMPDEST PUSH1 0x0 SLOAD DUP2 JUMP JUMPDEST PUSH1 0x60 PUSH2 0x13E PUSH8 0x4730F007D94E9B6 PUSH1 0xC0 SHL PUSH2 0x220 JUMP JUMPDEST PUSH2 0x152 PUSH8 0xD7183CDFA1CBB246 PUSH1 0xC0 SHL PUSH2 0x220 JUMP JUMPDEST PUSH2 0x166 PUSH8 0xFFA08679AAE4E390 PUSH1 0xC0 SHL PUSH2 0x220 JUMP JUMPDEST PUSH1 0x40 MLOAD DUP1 PUSH1 0x40 ADD PUSH1 0x40 MSTORE DUP1 PUSH1 0x14 DUP2 MSTORE PUSH1 0x20 ADD PUSH32 0x48656C6C6F2066726F6D20636F6E747261637421000000000000000000000000 DUP2 MSTORE POP SWAP1 POP SWAP1 JUMP JUMPDEST PUSH1 0x40 MLOAD DUP1 PUSH1 0x40 ADD PUSH1 0x40 MSTORE DUP1 PUSH1 0x14 DUP2 MSTORE PUSH1 0x20 ADD PUSH32 0x48656C6C6F2066726F6D20636F6E747261637421000000000000000000000000 DUP2 MSTORE POP DUP2 JUMP JUMPDEST PUSH1 0x0 PUSH2 0x1F0 PUSH8 0x6316D9829D7AE3C1 PUSH1 0xC0 SHL PUSH2 0x220 JUMP JUMPDEST PUSH2 0x204 PUSH8 0x8B4A35A6289670AB PUSH1 0xC0 SHL PUSH2 0x220 JUMP JUMPDEST PUSH2 0x218 PUSH8 0x9F6ABE498D0C7921 PUSH1 0xC0 SHL PUSH2 0x220 JUMP JUMPDEST PUSH1 0x0 SLOAD SWAP1 POP SWAP1 JUMP JUMPDEST POP JUMP JUMPDEST PUSH1 0x0 DUP1 REVERT JUMPDEST PUSH1 0x0 DUP2 SWAP1 POP SWAP2 SWAP1 POP JUMP JUMPDEST PUSH2 0x23B DUP2 PUSH2 0x228 JUMP JUMPDEST DUP2 EQ PUSH2 0x246 JUMPI PUSH1 0x0 DUP1 REVERT JUMPDEST POP JUMP JUMPDEST PUSH1 0x0 DUP2 CALLDATALOAD SWAP1 POP PUSH2 0x258 DUP2 PUSH2 0x232 JUMP JUMPDEST SWAP3 SWAP2 POP POP JUMP JUMPDEST PUSH1 0x0 PUSH1 0x20 DUP3 DUP5 SUB SLT ISZERO PUSH2 0x274 JUMPI PUSH2 0x273 PUSH2 0x223 JUMP JUMPDEST JUMPDEST PUSH1 0x0 PUSH2 0x282 DUP5 DUP3 DUP6 ADD PUSH2 0x249 JUMP JUMPDEST SWAP2 POP POP SWAP3 SWAP2 POP POP JUMP JUMPDEST PUSH2 0x294 DUP2 PUSH2 0x228 JUMP JUMPDEST DUP3 MSTORE POP POP JUMP JUMPDEST PUSH1 0x0 PUSH1 0x20 DUP3 ADD SWAP1 POP PUSH2 0x2AF PUSH1 0x0 DUP4 ADD DUP5 PUSH2 0x28B JUMP JUMPDEST SWAP3 SWAP2 POP POP JUMP JUMPDEST PUSH1 0x0 DUP2 MLOAD SWAP1 POP SWAP2 SWAP1 POP JUMP JUMPDEST PUSH1 0x0 DUP3 DUP3 MSTORE PUSH1 0x20 DUP3 ADD SWAP1 POP SWAP3 SWAP2 POP POP JUMP JUMPDEST PUSH1 0x0 JUMPDEST DUP4 DUP2 LT ISZERO PUSH2 0x2EF JUMPI DUP1 DUP3 ADD MLOAD DUP2 DUP5 ADD MSTORE PUSH1 0x20 DUP2 ADD SWAP1 POP PUSH2 0x2D4 JUMP JUMPDEST PUSH1 0x0 DUP5 DUP5 ADD MSTORE POP POP POP POP JUMP JUMPDEST PUSH1 0x0 PUSH1 0x1F NOT PUSH1 0x1F DUP4 ADD AND SWAP1 POP SWAP2 SWAP1 POP JUMP JUMPDEST PUSH1 0x0 PUSH2 0x317 DUP3 PUSH2 0x2B5 JUMP JUMPDEST PUSH2 0x321 DUP2 DUP6 PUSH2 0x2C0 JUMP JUMPDEST SWAP4 POP PUSH2 0x331 DUP2 DUP6 PUSH1 0x20 DUP7 ADD PUSH2 0x2D1 JUMP JUMPDEST PUSH2 0x33A DUP2 PUSH2 0x2FB JUMP JUMPDEST DUP5 ADD SWAP2 POP POP SWAP3 SWAP2 POP POP JUMP JUMPDEST PUSH1 0x0 PUSH1 0x20 DUP3 ADD SWAP1 POP DUP2 DUP2 SUB PUSH1 0x0 DUP4 ADD MSTORE PUSH2 0x35F DUP2 DUP5 PUSH2 0x30C JUMP JUMPDEST SWAP1 POP SWAP3 SWAP2 POP POP JUMP INVALID LOG2 PUSH5 0x6970667358 0x22 SLT KECCAK256 0x21 SWAP13 0xB7 PUSH16 0xF2E11C0196938002307C3A16F776AE1 SWAP12 0xE4 0xC8 JUMP SSTORE SELFDESTRUCT 0xCB PUSH12 0xDC44270164736F6C63430008 XOR STOP CALLER "},"methodIdentifiers":{"getNumber()":"f2c9ecd8","greet()":"cfae3217","greeting()":"ef690cc0","number()":"8381f58a","setNumber(uint256)":"3fb5c1cb"}}}}}