{
  "_format": "hh-sol-artifact-1",
  "contractName": "Greeter",
  "sourceName": "contracts/Greeter.sol",
  "abi": [
    {
      "inputs": [
        {
          "internalType": "uint256",
          "name": "_number",
          "type": "uint256"
        }
      ],
      "stateMutability": "nonpayable",
      "type": "constructor"
    },
    {
      "inputs": [],
      "name": "getNumber",
      "outputs": [
        {
          "internalType": "uint256",
          "name": "",
          "type": "uint256"
        }
      ],
      "stateMutability": "view",
      "type": "function"
    },
    {
      "inputs": [],
      "name": "greet",
      "outputs": [
        {
          "internalType": "string",
          "name": "",
          "type": "string"
        }
      ],
      "stateMutability": "pure",
      "type": "function"
    },
    {
      "inputs": [],
      "name": "greeting",
      "outputs": [
        {
          "internalType": "string",
          "name": "",
          "type": "string"
        }
      ],
      "stateMutability": "view",
      "type": "function"
    },
    {
      "inputs": [],
      "name": "number",
      "outputs": [
        {
          "internalType": "uint256",
          "name": "",
          "type": "uint256"
        }
      ],
      "stateMutability": "view",
      "type": "function"
    },
    {
      "inputs": [
        {
          "internalType": "uint256",
          "name": "_number",
          "type": "uint256"
        }
      ],
      "name": "setNumber",
      "outputs": [],
      "stateMutability": "nonpayable",
      "type": "function"
    }
  ],
  "bytecode": "0x608060405234801561001057600080fd5b5060405161048a38038061048a833981810160405281019061003291906100b1565b61004c67af15728cd59ee59a60c01b61007360201b60201c565b61006667c38c8579034b6fe960c01b61007360201b60201c565b80600081905550506100de565b50565b600080fd5b6000819050919050565b61008e8161007b565b811461009957600080fd5b50565b6000815190506100ab81610085565b92915050565b6000602082840312156100c7576100c6610076565b5b60006100d58482850161009c565b91505092915050565b61039d806100ed6000396000f3fe608060405234801561001057600080fd5b50600436106100575760003560e01c80633fb5c1cb1461005c5780638381f58a14610078578063cfae321714610096578063ef690cc0146100b4578063f2c9ecd8146100d2575b600080fd5b6100766004803603810190610071919061025e565b6100f0565b005b610080610122565b60405161008d919061029a565b60405180910390f35b61009e610128565b6040516100ab9190610345565b60405180910390f35b6100bc6101a1565b6040516100c99190610345565b60405180910390f35b6100da6101da565b6040516100e7919061029a565b60405180910390f35b610104674731c5e42165727660c01b610220565b610118675937d4440a60d56c60c01b610220565b8060008190555050565b60005481565b606061013e6704730f007d94e9b660c01b610220565b61015267d7183cdfa1cbb24660c01b610220565b61016667ffa08679aae4e39060c01b610220565b6040518060400160405280601481526020017f48656c6c6f2066726f6d20636f6e747261637421000000000000000000000000815250905090565b6040518060400160405280601481526020017f48656c6c6f2066726f6d20636f6e74726163742100000000000000000000000081525081565b60006101f0676316d9829d7ae3c160c01b610220565b610204678b4a35a6289670ab60c01b610220565b610218679f6abe498d0c792160c01b610220565b600054905090565b50565b600080fd5b6000819050919050565b61023b81610228565b811461024657600080fd5b50565b60008135905061025881610232565b92915050565b60006020828403121561027457610273610223565b5b600061028284828501610249565b91505092915050565b61029481610228565b82525050565b60006020820190506102af600083018461028b565b92915050565b600081519050919050565b600082825260208201905092915050565b60005b838110156102ef5780820151818401526020810190506102d4565b60008484015250505050565b6000601f19601f8301169050919050565b6000610317826102b5565b61032181856102c0565b93506103318185602086016102d1565b61033a816102fb565b840191505092915050565b6000602082019050818103600083015261035f818461030c565b90509291505056fea2646970667358221220219cb76f0f2e11c0196938002307c3a16f776ae19be4c85655ffcb6bdc44270164736f6c63430008180033",
  "linkReferences": {},
  "deployedLinkReferences": {}
}